{
  "contractName": "Dex",
  "abi": [
    {
      "anonymous": false,
      "inputs": [
        {
          "indexed": true,
          "internalType": "address",
          "name": "previousOwner",
          "type": "address"
        },
        {
          "indexed": true,
          "internalType": "address",
          "name": "newOwner",
          "type": "address"
        }
      ],
      "name": "OwnershipTransferred",
      "type": "event"
    },
    {
      "inputs": [
        {
          "internalType": "bytes32",
          "name": "ticker",
          "type": "bytes32"
        },
        {
          "internalType": "address",
          "name": "tokenAddress",
          "type": "address"
        }
      ],
      "name": "addToken",
      "outputs": [],
      "stateMutability": "nonpayable",
      "type": "function"
    },
    {
      "inputs": [
        {
          "internalType": "address",
          "name": "",
          "type": "address"
        },
        {
          "internalType": "bytes32",
          "name": "",
          "type": "bytes32"
        }
      ],
      "name": "balances",
      "outputs": [
        {
          "internalType": "uint256",
          "name": "",
          "type": "uint256"
        }
      ],
      "stateMutability": "view",
      "type": "function",
      "constant": true
    },
    {
      "inputs": [
        {
          "internalType": "uint256",
          "name": "amount",
          "type": "uint256"
        },
        {
          "internalType": "bytes32",
          "name": "ticker",
          "type": "bytes32"
        }
      ],
      "name": "deposit",
      "outputs": [],
      "stateMutability": "nonpayable",
      "type": "function"
    },
    {
      "inputs": [],
      "name": "depositEth",
      "outputs": [],
      "stateMutability": "payable",
      "type": "function",
      "payable": true
    },
    {
      "inputs": [],
      "name": "nextOrderId",
      "outputs": [
        {
          "internalType": "uint256",
          "name": "",
          "type": "uint256"
        }
      ],
      "stateMutability": "view",
      "type": "function",
      "constant": true
    },
    {
      "inputs": [
        {
          "internalType": "bytes32",
          "name": "",
          "type": "bytes32"
        },
        {
          "internalType": "uint256",
          "name": "",
          "type": "uint256"
        },
        {
          "internalType": "uint256",
          "name": "",
          "type": "uint256"
        }
      ],
      "name": "orderBook",
      "outputs": [
        {
          "internalType": "uint256",
          "name": "id",
          "type": "uint256"
        },
        {
          "internalType": "address",
          "name": "trader",
          "type": "address"
        },
        {
          "internalType": "enum Dex.Side",
          "name": "side",
          "type": "uint8"
        },
        {
          "internalType": "bytes32",
          "name": "ticker",
          "type": "bytes32"
        },
        {
          "internalType": "uint256",
          "name": "amount",
          "type": "uint256"
        },
        {
          "internalType": "uint256",
          "name": "price",
          "type": "uint256"
        },
        {
          "internalType": "uint256",
          "name": "filled",
          "type": "uint256"
        }
      ],
      "stateMutability": "view",
      "type": "function",
      "constant": true
    },
    {
      "inputs": [],
      "name": "owner",
      "outputs": [
        {
          "internalType": "address",
          "name": "",
          "type": "address"
        }
      ],
      "stateMutability": "view",
      "type": "function",
      "constant": true
    },
    {
      "inputs": [],
      "name": "renounceOwnership",
      "outputs": [],
      "stateMutability": "nonpayable",
      "type": "function"
    },
    {
      "inputs": [
        {
          "internalType": "uint256",
          "name": "",
          "type": "uint256"
        }
      ],
      "name": "tokenList",
      "outputs": [
        {
          "internalType": "bytes32",
          "name": "",
          "type": "bytes32"
        }
      ],
      "stateMutability": "view",
      "type": "function",
      "constant": true
    },
    {
      "inputs": [
        {
          "internalType": "bytes32",
          "name": "",
          "type": "bytes32"
        }
      ],
      "name": "tokenMapping",
      "outputs": [
        {
          "internalType": "bytes32",
          "name": "ticker",
          "type": "bytes32"
        },
        {
          "internalType": "address",
          "name": "tokenAddress",
          "type": "address"
        }
      ],
      "stateMutability": "view",
      "type": "function",
      "constant": true
    },
    {
      "inputs": [
        {
          "internalType": "address",
          "name": "newOwner",
          "type": "address"
        }
      ],
      "name": "transferOwnership",
      "outputs": [],
      "stateMutability": "nonpayable",
      "type": "function"
    },
    {
      "inputs": [
        {
          "internalType": "uint256",
          "name": "amount",
          "type": "uint256"
        },
        {
          "internalType": "bytes32",
          "name": "ticker",
          "type": "bytes32"
        }
      ],
      "name": "withdraw",
      "outputs": [],
      "stateMutability": "nonpayable",
      "type": "function"
    },
    {
      "inputs": [
        {
          "internalType": "uint256",
          "name": "amount",
          "type": "uint256"
        }
      ],
      "name": "withdrawEth",
      "outputs": [],
      "stateMutability": "nonpayable",
      "type": "function"
    },
    {
      "inputs": [
        {
          "internalType": "bytes32",
          "name": "ticker",
          "type": "bytes32"
        },
        {
          "internalType": "enum Dex.Side",
          "name": "side",
          "type": "uint8"
        }
      ],
      "name": "getOrderBook",
      "outputs": [
        {
          "components": [
            {
              "internalType": "uint256",
              "name": "id",
              "type": "uint256"
            },
            {
              "internalType": "address",
              "name": "trader",
              "type": "address"
            },
            {
              "internalType": "enum Dex.Side",
              "name": "side",
              "type": "uint8"
            },
            {
              "internalType": "bytes32",
              "name": "ticker",
              "type": "bytes32"
            },
            {
              "internalType": "uint256",
              "name": "amount",
              "type": "uint256"
            },
            {
              "internalType": "uint256",
              "name": "price",
              "type": "uint256"
            },
            {
              "internalType": "uint256",
              "name": "filled",
              "type": "uint256"
            }
          ],
          "internalType": "struct Dex.Order[]",
          "name": "",
          "type": "tuple[]"
        }
      ],
      "stateMutability": "view",
      "type": "function",
      "constant": true
    },
    {
      "inputs": [
        {
          "internalType": "enum Dex.Side",
          "name": "side",
          "type": "uint8"
        },
        {
          "internalType": "bytes32",
          "name": "ticker",
          "type": "bytes32"
        },
        {
          "internalType": "uint256",
          "name": "amount",
          "type": "uint256"
        },
        {
          "internalType": "uint256",
          "name": "price",
          "type": "uint256"
        }
      ],
      "name": "createLimitOrder",
      "outputs": [],
      "stateMutability": "nonpayable",
      "type": "function"
    },
    {
      "inputs": [
        {
          "internalType": "enum Dex.Side",
          "name": "side",
          "type": "uint8"
        },
        {
          "internalType": "bytes32",
          "name": "ticker",
          "type": "bytes32"
        },
        {
          "internalType": "uint256",
          "name": "amount",
          "type": "uint256"
        }
      ],
      "name": "createMarketOrder",
      "outputs": [],
      "stateMutability": "nonpayable",
      "type": "function"
    }
  ],
  "bytecode": "0x608060405260006004553480156200001657600080fd5b50620000376200002b6200003d60201b60201c565b6200004560201b60201c565b62000109565b600033905090565b60008060009054906101000a900473ffffffffffffffffffffffffffffffffffffffff169050816000806101000a81548173ffffffffffffffffffffffffffffffffffffffff021916908373ffffffffffffffffffffffffffffffffffffffff1602179055508173ffffffffffffffffffffffffffffffffffffffff168173ffffffffffffffffffffffffffffffffffffffff167f8be0079c531659141344cd1fd0a4f28419497f9722a3daafe3b4186f6b6457e060405160405180910390a35050565b61310e80620001196000396000f3fe6080604052600436106100f35760003560e01c80639776aacf1161008a578063ba58ea6811610059578063ba58ea681461030e578063c311d0491461034b578063c9630cb014610374578063f2fde38b1461039d576100f3565b80639776aacf1461025657806399ec2f1c1461027f5780639ead7222146102a8578063a8d2021a146102e5576100f3565b8063667cb4ba116100c6578063667cb4ba146101ad5780636f3b62f9146101eb578063715018a6146102145780638da5cb5b1461022b576100f3565b80630bb431b6146100f85780631f14df691461013b5780632a58b33014610178578063439370b1146101a3575b600080fd5b34801561010457600080fd5b5061011f600480360381019061011a9190612533565b6103c6565b604051610132979695949392919061265c565b60405180910390f35b34801561014757600080fd5b50610162600480360381019061015d91906126f7565b61045f565b60405161016f9190612737565b60405180910390f35b34801561018457600080fd5b5061018d610484565b60405161019a9190612737565b60405180910390f35b6101ab61048a565b005b3480156101b957600080fd5b506101d460048036038101906101cf9190612752565b610513565b6040516101e292919061277f565b60405180910390f35b3480156101f757600080fd5b50610212600480360381019061020d91906127cd565b610557565b005b34801561022057600080fd5b50610229610f87565b005b34801561023757600080fd5b5061024061100f565b60405161024d9190612834565b60405180910390f35b34801561026257600080fd5b5061027d6004803603810190610278919061284f565b611038565b005b34801561028b57600080fd5b506102a660048036038101906102a1919061288f565b611173565b005b3480156102b457600080fd5b506102cf60048036038101906102ca91906128e2565b611bb9565b6040516102dc919061290f565b60405180910390f35b3480156102f157600080fd5b5061030c6004803603810190610307919061292a565b611bdd565b005b34801561031a57600080fd5b506103356004803603810190610330919061296a565b611e37565b6040516103429190612b23565b60405180910390f35b34801561035757600080fd5b50610372600480360381019061036d91906128e2565b611f90565b005b34801561038057600080fd5b5061039b6004803603810190610396919061292a565b612136565b005b3480156103a957600080fd5b506103c460048036038101906103bf9190612b45565b6122ff565b005b600560205282600052604060002060205281600052604060002081815481106103ee57600080fd5b906000526020600020906006020160009250925050508060000154908060010160009054906101000a900473ffffffffffffffffffffffffffffffffffffffff16908060010160149054906101000a900460ff16908060020154908060030154908060040154908060050154905087565b6003602052816000526040600020602052806000526040600020600091509150505481565b60045481565b34600360003373ffffffffffffffffffffffffffffffffffffffff1673ffffffffffffffffffffffffffffffffffffffff16815260200190815260200160002060007f45544800000000000000000000000000000000000000000000000000000000008152602001908152602001600020600082825461050a9190612ba1565b92505081905550565b60016020528060005260406000206000915090508060000154908060010160009054906101000a900473ffffffffffffffffffffffffffffffffffffffff16905082565b6000600181111561056b5761056a6125d6565b5b84600181111561057e5761057d6125d6565b5b0361061057808261058f9190612bf7565b600360003373ffffffffffffffffffffffffffffffffffffffff1673ffffffffffffffffffffffffffffffffffffffff16815260200190815260200160002060007f4554480000000000000000000000000000000000000000000000000000000000815260200190815260200160002054101561060b57600080fd5b61069a565b600180811115610623576106226125d6565b5b846001811115610636576106356125d6565b5b036106995781600360003373ffffffffffffffffffffffffffffffffffffffff1673ffffffffffffffffffffffffffffffffffffffff168152602001908152602001600020600085815260200190815260200160002054101561069857600080fd5b5b5b60006005600085815260200190815260200160002060008660018111156106c4576106c36125d6565b5b81526020019081526020016000209050806040518060e0016040528060045481526020013373ffffffffffffffffffffffffffffffffffffffff168152602001876001811115610717576107166125d6565b5b8152602001868152602001858152602001848152602001600081525090806001815401808255809150506001900390600052602060002090600602016000909190919091506000820151816000015560208201518160010160006101000a81548173ffffffffffffffffffffffffffffffffffffffff021916908373ffffffffffffffffffffffffffffffffffffffff16021790555060408201518160010160146101000a81548160ff021916908360018111156107d8576107d76125d6565b5b0217905550606082015181600201556080820151816003015560a0820151816004015560c08201518160050155505060008082805490501161081b57600061082d565b6001828054905061082c9190612c51565b5b905060006001811115610843576108426125d6565b5b866001811115610856576108556125d6565b5b03610bcd575b6000811115610bc85781818154811061087857610877612c85565b5b906000526020600020906006020160040154826001836108989190612c51565b815481106108a9576108a8612c85565b5b90600052602060002090600602016004015411610bc8576000826001836108d09190612c51565b815481106108e1576108e0612c85565b5b90600052602060002090600602016040518060e0016040529081600082015481526020016001820160009054906101000a900473ffffffffffffffffffffffffffffffffffffffff1673ffffffffffffffffffffffffffffffffffffffff1673ffffffffffffffffffffffffffffffffffffffff1681526020016001820160149054906101000a900460ff16600181111561097f5761097e6125d6565b5b6001811115610991576109906125d6565b5b815260200160028201548152602001600382015481526020016004820154815260200160058201548152505090508282815481106109d2576109d1612c85565b5b9060005260206000209060060201836001846109ee9190612c51565b815481106109ff576109fe612c85565b5b9060005260206000209060060201600082015481600001556001820160009054906101000a900473ffffffffffffffffffffffffffffffffffffffff168160010160006101000a81548173ffffffffffffffffffffffffffffffffffffffff021916908373ffffffffffffffffffffffffffffffffffffffff1602179055506001820160149054906101000a900460ff168160010160146101000a81548160ff02191690836001811115610ab657610ab56125d6565b5b02179055506002820154816002015560038201548160030155600482015481600401556005820154816005015590505080838381548110610afa57610af9612c85565b5b90600052602060002090600602016000820151816000015560208201518160010160006101000a81548173ffffffffffffffffffffffffffffffffffffffff021916908373ffffffffffffffffffffffffffffffffffffffff16021790555060408201518160010160146101000a81548160ff02191690836001811115610b8457610b836125d6565b5b0217905550606082015181600201556080820151816003015560a0820151816004015560c082015181600501559050508180610bbf90612cb4565b9250505061085c565b610f67565b600180811115610be057610bdf6125d6565b5b866001811115610bf357610bf26125d6565b5b03610f66575b6000811115610f6557818181548110610c1557610c14612c85565b5b90600052602060002090600602016004015482600183610c359190612c51565b81548110610c4657610c45612c85565b5b90600052602060002090600602016004015410610f6557600082600183610c6d9190612c51565b81548110610c7e57610c7d612c85565b5b90600052602060002090600602016040518060e0016040529081600082015481526020016001820160009054906101000a900473ffffffffffffffffffffffffffffffffffffffff1673ffffffffffffffffffffffffffffffffffffffff1673ffffffffffffffffffffffffffffffffffffffff1681526020016001820160149054906101000a900460ff166001811115610d1c57610d1b6125d6565b5b6001811115610d2e57610d2d6125d6565b5b81526020016002820154815260200160038201548152602001600482015481526020016005820154815250509050828281548110610d6f57610d6e612c85565b5b906000526020600020906006020183600184610d8b9190612c51565b81548110610d9c57610d9b612c85565b5b9060005260206000209060060201600082015481600001556001820160009054906101000a900473ffffffffffffffffffffffffffffffffffffffff168160010160006101000a81548173ffffffffffffffffffffffffffffffffffffffff021916908373ffffffffffffffffffffffffffffffffffffffff1602179055506001820160149054906101000a900460ff168160010160146101000a81548160ff02191690836001811115610e5357610e526125d6565b5b02179055506002820154816002015560038201548160030155600482015481600401556005820154816005015590505080838381548110610e9757610e96612c85565b5b90600052602060002090600602016000820151816000015560208201518160010160006101000a81548173ffffffffffffffffffffffffffffffffffffffff021916908373ffffffffffffffffffffffffffffffffffffffff16021790555060408201518160010160146101000a81548160ff02191690836001811115610f2157610f206125d6565b5b0217905550606082015181600201556080820151816003015560a0820151816004015560c082015181600501559050508180610f5c90612cb4565b92505050610bf9565b5b5b60046000815480929190610f7a90612cdd565b9190505550505050505050565b610f8f6123f6565b73ffffffffffffffffffffffffffffffffffffffff16610fad61100f565b73ffffffffffffffffffffffffffffffffffffffff1614611003576040517f08c379a0000000000000000000000000000000000000000000000000000000008152600401610ffa90612d82565b60405180910390fd5b61100d60006123fe565b565b60008060009054906101000a900473ffffffffffffffffffffffffffffffffffffffff16905090565b6110406123f6565b73ffffffffffffffffffffffffffffffffffffffff1661105e61100f565b73ffffffffffffffffffffffffffffffffffffffff16146110b4576040517f08c379a00000000000000000000000000000000000000000000000000000000081526004016110ab90612d82565b60405180910390fd5b60405180604001604052808381526020018273ffffffffffffffffffffffffffffffffffffffff16815250600160008481526020019081526020016000206000820151816000015560208201518160010160006101000a81548173ffffffffffffffffffffffffffffffffffffffff021916908373ffffffffffffffffffffffffffffffffffffffff16021790555090505060028290806001815401808255809150506001900390600052602060002001600090919091909150555050565b600180811115611186576111856125d6565b5b836001811115611199576111986125d6565b5b036112325780600360003373ffffffffffffffffffffffffffffffffffffffff1673ffffffffffffffffffffffffffffffffffffffff1681526020019081526020016000206000848152602001908152602001600020541015611231576040517f08c379a000000000000000000000000000000000000000000000000000000000815260040161122890612dee565b60405180910390fd5b5b6000806001811115611247576112466125d6565b5b84600181111561125a576112596125d6565b5b03611268576001905061126d565b600090505b600060056000858152602001908152602001600020600083815260200190815260200160002090506000805b8280549050811080156112ab57508482105b1561196557600082866112be9190612c51565b905060008483815481106112d5576112d4612c85565b5b9060005260206000209060060201600501548584815481106112fa576112f9612c85565b5b9060005260206000209060060201600301546113169190612c51565b905060008282111561132a5782905061132e565b8190505b808561133a9190612ba1565b9450808685815481106113505761134f612c85565b5b906000526020600020906006020160050160008282546113709190612ba1565b92505081905550600086858154811061138c5761138b612c85565b5b906000526020600020906006020160040154826113a99190612bf7565b9050600060018111156113bf576113be6125d6565b5b8b60018111156113d2576113d16125d6565b5b036116bd5780600360003373ffffffffffffffffffffffffffffffffffffffff1673ffffffffffffffffffffffffffffffffffffffff16815260200190815260200160002060007f4554480000000000000000000000000000000000000000000000000000000000815260200190815260200160002054101561145457600080fd5b81600360003373ffffffffffffffffffffffffffffffffffffffff1673ffffffffffffffffffffffffffffffffffffffff16815260200190815260200160002060008c815260200190815260200160002060008282546114b49190612ba1565b9250508190555080600360003373ffffffffffffffffffffffffffffffffffffffff1673ffffffffffffffffffffffffffffffffffffffff16815260200190815260200160002060007f45544800000000000000000000000000000000000000000000000000000000008152602001908152602001600020600082825461153b9190612c51565b92505081905550816003600089888154811061155a57611559612c85565b5b906000526020600020906006020160010160009054906101000a900473ffffffffffffffffffffffffffffffffffffffff1673ffffffffffffffffffffffffffffffffffffffff1673ffffffffffffffffffffffffffffffffffffffff16815260200190815260200160002060008c815260200190815260200160002060008282546115e69190612c51565b92505081905550806003600089888154811061160557611604612c85565b5b906000526020600020906006020160010160009054906101000a900473ffffffffffffffffffffffffffffffffffffffff1673ffffffffffffffffffffffffffffffffffffffff1673ffffffffffffffffffffffffffffffffffffffff16815260200190815260200160002060007f4554480000000000000000000000000000000000000000000000000000000000815260200190815260200160002060008282546116b19190612ba1565b9250508190555061194e565b6001808111156116d0576116cf6125d6565b5b8b60018111156116e3576116e26125d6565b5b0361194d5781600360003373ffffffffffffffffffffffffffffffffffffffff1673ffffffffffffffffffffffffffffffffffffffff16815260200190815260200160002060008c815260200190815260200160002060008282546117489190612c51565b9250508190555080600360003373ffffffffffffffffffffffffffffffffffffffff1673ffffffffffffffffffffffffffffffffffffffff16815260200190815260200160002060007f4554480000000000000000000000000000000000000000000000000000000000815260200190815260200160002060008282546117cf9190612ba1565b9250508190555081600360008988815481106117ee576117ed612c85565b5b906000526020600020906006020160010160009054906101000a900473ffffffffffffffffffffffffffffffffffffffff1673ffffffffffffffffffffffffffffffffffffffff1673ffffffffffffffffffffffffffffffffffffffff16815260200190815260200160002060008c8152602001908152602001600020600082825461187a9190612ba1565b92505081905550806003600089888154811061189957611898612c85565b5b906000526020600020906006020160010160009054906101000a900473ffffffffffffffffffffffffffffffffffffffff1673ffffffffffffffffffffffffffffffffffffffff1673ffffffffffffffffffffffffffffffffffffffff16815260200190815260200160002060007f4554480000000000000000000000000000000000000000000000000000000000815260200190815260200160002060008282546119459190612c51565b925050819055505b5b50505050808061195d90612cdd565b915050611299565b505b600082805490501180156119c457508160008154811061198a57611989612c85565b5b906000526020600020906006020160030154826000815481106119b0576119af612c85565b5b906000526020600020906006020160050154145b15611bb15760005b600183805490506119dd9190612c51565b811015611b1e57826001826119f29190612ba1565b81548110611a0357611a02612c85565b5b9060005260206000209060060201838281548110611a2457611a23612c85565b5b9060005260206000209060060201600082015481600001556001820160009054906101000a900473ffffffffffffffffffffffffffffffffffffffff168160010160006101000a81548173ffffffffffffffffffffffffffffffffffffffff021916908373ffffffffffffffffffffffffffffffffffffffff1602179055506001820160149054906101000a900460ff168160010160146101000a81548160ff02191690836001811115611adb57611ada6125d6565b5b0217905550600282015481600201556003820154816003015560048201548160040155600582015481600501559050508080611b1690612cdd565b9150506119cc565b5081805480611b3057611b2f612e0e565b5b60019003818190600052602060002090600602016000808201600090556001820160006101000a81549073ffffffffffffffffffffffffffffffffffffffff02191690556001820160146101000a81549060ff0219169055600282016000905560038201600090556004820160009055600582016000905550509055611967565b505050505050565b60028181548110611bc957600080fd5b906000526020600020016000915090505481565b80600073ffffffffffffffffffffffffffffffffffffffff166001600083815260200190815260200160002060010160009054906101000a900473ffffffffffffffffffffffffffffffffffffffff1673ffffffffffffffffffffffffffffffffffffffff1603611c83576040517f08c379a0000000000000000000000000000000000000000000000000000000008152600401611c7a90612eaf565b60405180910390fd5b82600360003373ffffffffffffffffffffffffffffffffffffffff1673ffffffffffffffffffffffffffffffffffffffff1681526020019081526020016000206000848152602001908152602001600020541015611d16576040517f08c379a0000000000000000000000000000000000000000000000000000000008152600401611d0d90612f1b565b60405180910390fd5b82600360003373ffffffffffffffffffffffffffffffffffffffff1673ffffffffffffffffffffffffffffffffffffffff16815260200190815260200160002060008481526020019081526020016000206000828254611d769190612c51565b925050819055506001600083815260200190815260200160002060010160009054906101000a900473ffffffffffffffffffffffffffffffffffffffff1673ffffffffffffffffffffffffffffffffffffffff1663a9059cbb33856040518363ffffffff1660e01b8152600401611dee929190612f3b565b6020604051808303816000875af1158015611e0d573d6000803e3d6000fd5b505050506040513d601f19601f82011682018060405250810190611e319190612f9c565b50505050565b6060600560008481526020019081526020016000206000836001811115611e6157611e606125d6565b5b8152602001908152602001600020805480602002602001604051908101604052809291908181526020016000905b82821015611f8457838290600052602060002090600602016040518060e0016040529081600082015481526020016001820160009054906101000a900473ffffffffffffffffffffffffffffffffffffffff1673ffffffffffffffffffffffffffffffffffffffff1673ffffffffffffffffffffffffffffffffffffffff1681526020016001820160149054906101000a900460ff166001811115611f3757611f366125d6565b5b6001811115611f4957611f486125d6565b5b815260200160028201548152602001600382015481526020016004820154815260200160058201548152505081526020019060010190611e8f565b50505050905092915050565b80600360003373ffffffffffffffffffffffffffffffffffffffff1673ffffffffffffffffffffffffffffffffffffffff16815260200190815260200160002060007f45544800000000000000000000000000000000000000000000000000000000008152602001908152602001600020541015612043576040517f08c379a000000000000000000000000000000000000000000000000000000000815260040161203a90612dee565b60405180910390fd5b80600360003373ffffffffffffffffffffffffffffffffffffffff1673ffffffffffffffffffffffffffffffffffffffff16815260200190815260200160002060007f4554480000000000000000000000000000000000000000000000000000000000815260200190815260200160002060008282546120c39190612c51565b925050819055503373ffffffffffffffffffffffffffffffffffffffff16816040516120ee90612ffa565b60006040518083038185875af1925050503d806000811461212b576040519150601f19603f3d011682016040523d82523d6000602084013e612130565b606091505b50505050565b80600073ffffffffffffffffffffffffffffffffffffffff166001600083815260200190815260200160002060010160009054906101000a900473ffffffffffffffffffffffffffffffffffffffff1673ffffffffffffffffffffffffffffffffffffffff16036121dc576040517f08c379a00000000000000000000000000000000000000000000000000000000081526004016121d390612eaf565b60405180910390fd5b6001600083815260200190815260200160002060010160009054906101000a900473ffffffffffffffffffffffffffffffffffffffff1673ffffffffffffffffffffffffffffffffffffffff166323b872dd3330866040518463ffffffff1660e01b815260040161224f9392919061300f565b6020604051808303816000875af115801561226e573d6000803e3d6000fd5b505050506040513d601f19601f820116820180604052508101906122929190612f9c565b5082600360003373ffffffffffffffffffffffffffffffffffffffff1673ffffffffffffffffffffffffffffffffffffffff168152602001908152602001600020600084815260200190815260200160002060008282546122f39190612ba1565b92505081905550505050565b6123076123f6565b73ffffffffffffffffffffffffffffffffffffffff1661232561100f565b73ffffffffffffffffffffffffffffffffffffffff161461237b576040517f08c379a000000000000000000000000000000000000000000000000000000000815260040161237290612d82565b60405180910390fd5b600073ffffffffffffffffffffffffffffffffffffffff168173ffffffffffffffffffffffffffffffffffffffff16036123ea576040517f08c379a00000000000000000000000000000000000000000000000000000000081526004016123e1906130b8565b60405180910390fd5b6123f3816123fe565b50565b600033905090565b60008060009054906101000a900473ffffffffffffffffffffffffffffffffffffffff169050816000806101000a81548173ffffffffffffffffffffffffffffffffffffffff021916908373ffffffffffffffffffffffffffffffffffffffff1602179055508173ffffffffffffffffffffffffffffffffffffffff168173ffffffffffffffffffffffffffffffffffffffff167f8be0079c531659141344cd1fd0a4f28419497f9722a3daafe3b4186f6b6457e060405160405180910390a35050565b600080fd5b6000819050919050565b6124da816124c7565b81146124e557600080fd5b50565b6000813590506124f7816124d1565b92915050565b6000819050919050565b612510816124fd565b811461251b57600080fd5b50565b60008135905061252d81612507565b92915050565b60008060006060848603121561254c5761254b6124c2565b5b600061255a868287016124e8565b935050602061256b8682870161251e565b925050604061257c8682870161251e565b9150509250925092565b61258f816124fd565b82525050565b600073ffffffffffffffffffffffffffffffffffffffff82169050919050565b60006125c082612595565b9050919050565b6125d0816125b5565b82525050565b7f4e487b7100000000000000000000000000000000000000000000000000000000600052602160045260246000fd5b60028110612616576126156125d6565b5b50565b600081905061262782612605565b919050565b600061263782612619565b9050919050565b6126478161262c565b82525050565b612656816124c7565b82525050565b600060e082019050612671600083018a612586565b61267e60208301896125c7565b61268b604083018861263e565b612698606083018761264d565b6126a56080830186612586565b6126b260a0830185612586565b6126bf60c0830184612586565b98975050505050505050565b6126d4816125b5565b81146126df57600080fd5b50565b6000813590506126f1816126cb565b92915050565b6000806040838503121561270e5761270d6124c2565b5b600061271c858286016126e2565b925050602061272d858286016124e8565b9150509250929050565b600060208201905061274c6000830184612586565b92915050565b600060208284031215612768576127676124c2565b5b6000612776848285016124e8565b91505092915050565b6000604082019050612794600083018561264d565b6127a160208301846125c7565b9392505050565b600281106127b557600080fd5b50565b6000813590506127c7816127a8565b92915050565b600080600080608085870312156127e7576127e66124c2565b5b60006127f5878288016127b8565b9450506020612806878288016124e8565b93505060406128178782880161251e565b92505060606128288782880161251e565b91505092959194509250565b600060208201905061284960008301846125c7565b92915050565b60008060408385031215612866576128656124c2565b5b6000612874858286016124e8565b9250506020612885858286016126e2565b9150509250929050565b6000806000606084860312156128a8576128a76124c2565b5b60006128b6868287016127b8565b93505060206128c7868287016124e8565b92505060406128d88682870161251e565b9150509250925092565b6000602082840312156128f8576128f76124c2565b5b60006129068482850161251e565b91505092915050565b6000602082019050612924600083018461264d565b92915050565b60008060408385031215612941576129406124c2565b5b600061294f8582860161251e565b9250506020612960858286016124e8565b9150509250929050565b60008060408385031215612981576129806124c2565b5b600061298f858286016124e8565b92505060206129a0858286016127b8565b9150509250929050565b600081519050919050565b600082825260208201905092915050565b6000819050602082019050919050565b6129df816124fd565b82525050565b6129ee816125b5565b82525050565b6129fd8161262c565b82525050565b612a0c816124c7565b82525050565b60e082016000820151612a2860008501826129d6565b506020820151612a3b60208501826129e5565b506040820151612a4e60408501826129f4565b506060820151612a616060850182612a03565b506080820151612a7460808501826129d6565b5060a0820151612a8760a08501826129d6565b5060c0820151612a9a60c08501826129d6565b50505050565b6000612aac8383612a12565b60e08301905092915050565b6000602082019050919050565b6000612ad0826129aa565b612ada81856129b5565b9350612ae5836129c6565b8060005b83811015612b16578151612afd8882612aa0565b9750612b0883612ab8565b925050600181019050612ae9565b5085935050505092915050565b60006020820190508181036000830152612b3d8184612ac5565b905092915050565b600060208284031215612b5b57612b5a6124c2565b5b6000612b69848285016126e2565b91505092915050565b7f4e487b7100000000000000000000000000000000000000000000000000000000600052601160045260246000fd5b6000612bac826124fd565b9150612bb7836124fd565b9250827fffffffffffffffffffffffffffffffffffffffffffffffffffffffffffffffff03821115612bec57612beb612b72565b5b828201905092915050565b6000612c02826124fd565b9150612c0d836124fd565b9250817fffffffffffffffffffffffffffffffffffffffffffffffffffffffffffffffff0483118215151615612c4657612c45612b72565b5b828202905092915050565b6000612c5c826124fd565b9150612c67836124fd565b925082821015612c7a57612c79612b72565b5b828203905092915050565b7f4e487b7100000000000000000000000000000000000000000000000000000000600052603260045260246000fd5b6000612cbf826124fd565b915060008203612cd257612cd1612b72565b5b600182039050919050565b6000612ce8826124fd565b91507fffffffffffffffffffffffffffffffffffffffffffffffffffffffffffffffff8203612d1a57612d19612b72565b5b600182019050919050565b600082825260208201905092915050565b7f4f776e61626c653a2063616c6c6572206973206e6f7420746865206f776e6572600082015250565b6000612d6c602083612d25565b9150612d7782612d36565b602082019050919050565b60006020820190508181036000830152612d9b81612d5f565b9050919050565b7f496e7375666669656e742062616c616e63650000000000000000000000000000600082015250565b6000612dd8601283612d25565b9150612de382612da2565b602082019050919050565b60006020820190508181036000830152612e0781612dcb565b9050919050565b7f4e487b7100000000000000000000000000000000000000000000000000000000600052603160045260246000fd5b7f546f6b656e20646f65736e2774206578697374207965742e20506c656173652060008201527f6164642074686520746f6b656e20666972737400000000000000000000000000602082015250565b6000612e99603383612d25565b9150612ea482612e3d565b604082019050919050565b60006020820190508181036000830152612ec881612e8c565b9050919050565b7f496e73756666696369656e742062616c616e6365000000000000000000000000600082015250565b6000612f05601483612d25565b9150612f1082612ecf565b602082019050919050565b60006020820190508181036000830152612f3481612ef8565b9050919050565b6000604082019050612f5060008301856125c7565b612f5d6020830184612586565b9392505050565b60008115159050919050565b612f7981612f64565b8114612f8457600080fd5b50565b600081519050612f9681612f70565b92915050565b600060208284031215612fb257612fb16124c2565b5b6000612fc084828501612f87565b91505092915050565b600081905092915050565b50565b6000612fe4600083612fc9565b9150612fef82612fd4565b600082019050919050565b600061300582612fd7565b9150819050919050565b600060608201905061302460008301866125c7565b61303160208301856125c7565b61303e6040830184612586565b949350505050565b7f4f776e61626c653a206e6577206f776e657220697320746865207a65726f206160008201527f6464726573730000000000000000000000000000000000000000000000000000602082015250565b60006130a2602683612d25565b91506130ad82613046565b604082019050919050565b600060208201905081810360008301526130d181613095565b905091905056fea2646970667358221220554c9e525e70f8e263cb60f66030abcdd1295bb55a358c51bd990522d7b0017364736f6c634300080d0033",
  "immutableReferences": {},
  "source": "pragma solidity ^0.8.0;\r\npragma experimental ABIEncoderV2; // required for returning structs\r\n\r\nimport \"./wallet.sol\";\r\n\r\n// our Dex inherits from the wallet contract\r\ncontract Dex is Wallet {\r\n    /* enum is like a custom variable that has different properties\r\n    It is similar to booleans but with custom values instead, also it can have\r\n    more than 2 options if we want\r\n    Under the surface, the first option would be a uint 0 , 2nd would be uint 1,....\r\n    Hence, here, buy would be a uint 0 and sell would be a uint 1 */\r\n\r\n    enum Side {\r\n        BUY,\r\n        SELL\r\n    }\r\n\r\n    struct Order {\r\n        uint256 id;\r\n        address trader;\r\n        Side side; // order.side = Side.BUY\r\n        bytes32 ticker;\r\n        uint256 amount;\r\n        uint256 price;\r\n        uint256 filled;\r\n    }\r\n\r\n    uint256 public nextOrderId = 0;\r\n\r\n    // ticker => 0 / 1 (as in the enum Side: BUY(uint 0) or SELL(uint 1)) => array of all the Orders\r\n    // thus, what this means is that each ticker(asset) will have two set of orderbooks (buy or sell)\r\n    // and each of this order book, it would contain an array of orders\r\n    mapping(bytes32 => mapping(uint256 => Order[])) public orderBook;\r\n\r\n    // side as in BUY or SELL\r\n    // e.g. getOrderBook(bytes32(\"LINK\"), Side.BUY)\r\n    function getOrderBook(bytes32 ticker, Side side)\r\n        public\r\n        view\r\n        returns (Order[] memory)\r\n    {\r\n        return orderBook[ticker][uint256(side)];\r\n    }\r\n\r\n    /* requires sorting. Best price should always be first in the order book.\r\n    Check again...\r\n    If on buy side, highest price should be at the top of the order book (highest to lowest)\r\n    If on sell side, loweest price should be at the lower of the order book (lowest to highest)\r\n    Hence, the 0 index should be filled first??\r\n    */\r\n    function createLimitOrder(\r\n        Side side,\r\n        bytes32 ticker,\r\n        uint256 amount,\r\n        uint256 price\r\n    ) public {\r\n        if (side == Side.BUY) {\r\n            // buying ERC20 token for ETH\r\n            require(balances[msg.sender][\"ETH\"] >= amount * price);\r\n        } else if (side == Side.SELL) {\r\n            // selling ERC20 token for ETH\r\n            require(balances[msg.sender][ticker] >= amount);\r\n        }\r\n\r\n        // gets the orderbook\r\n        Order[] storage orders = orderBook[ticker][uint256(side)];\r\n        //pushes into the orderbook; remember: if its storage, then\r\n        // when we push, even out is pushed in too\r\n        orders.push(\r\n            Order(nextOrderId, msg.sender, side, ticker, amount, price, 0)\r\n        );\r\n\r\n        //Bubble sort\r\n        // if orders.length is more than 0, i is orders.length -1\r\n        // if orders.length = 0 (orders array is empty) then i = 0\r\n        uint256 i = orders.length > 0 ? orders.length - 1 : 0;\r\n        if (side == Side.BUY) {\r\n            // sort highest to lowest\r\n            while (i > 0) {\r\n                if (orders[i - 1].price > orders[i].price) {\r\n                    break;\r\n                }\r\n                Order memory orderToMove = orders[i - 1];\r\n                orders[i - 1] = orders[i];\r\n                orders[i] = orderToMove;\r\n                i--;\r\n            }\r\n        } else if (side == Side.SELL) {\r\n            // sort lowest to highest\r\n            while (i > 0) {\r\n                if (orders[i - 1].price < orders[i].price) {\r\n                    break;\r\n                }\r\n                Order memory orderToMove = orders[i - 1];\r\n                orders[i - 1] = orders[i];\r\n                orders[i] = orderToMove;\r\n                i--;\r\n            }\r\n        }\r\n\r\n        nextOrderId++;\r\n    }\r\n\r\n    function createMarketOrder(\r\n        Side side,\r\n        bytes32 ticker,\r\n        uint256 amount\r\n    ) public {\r\n        if (side == Side.SELL) {\r\n            require(\r\n                balances[msg.sender][ticker] >= amount,\r\n                \"Insuffient balance\"\r\n            );\r\n        }\r\n\r\n        uint256 orderBookSide;\r\n        if (side == Side.BUY) {\r\n            orderBookSide = 1;\r\n        } else {\r\n            orderBookSide = 0;\r\n        }\r\n        Order[] storage orders = orderBook[ticker][orderBookSide];\r\n\r\n        uint256 totalFilled = 0;\r\n\r\n        /*loop stops if i < ordes.length (as in whole order book has been looped)\r\n         or if totalFilled is equal amount. We use && because for loops, the 2nd part\r\n         is the condition and the loop keeps running as long as the condition is true.\r\n         Remember: true && false => false   ; true || false => true. \r\n         If, we use || (OR) instead, if one of the condition becomes false, the 2nd part is still true and loop continues.\r\n         Hence, we use && (AND) since if either one of the conditions becomes false, the 2nd part becomes false and loop stops\r\n         */\r\n        for (uint256 i = 0; i < orders.length && totalFilled < amount; i++) {\r\n            uint256 leftToFill = amount - (totalFilled);\r\n            uint256 availableToFill = orders[i].amount - (orders[i].filled);\r\n            uint256 filled = 0;\r\n            if (availableToFill > leftToFill) {\r\n                filled = leftToFill; //Fill the entire market order\r\n            } else {\r\n                filled = availableToFill; //Fill as much as is available in order[i]\r\n            }\r\n\r\n            totalFilled += (filled);\r\n            orders[i].filled += (filled);\r\n            uint256 cost = filled * (orders[i].price);\r\n\r\n            // executes the trade and shifts balance between buyer/seller\r\n            if (side == Side.BUY) {\r\n                //Verify that the buyer has enough ETH to cover the purchase (require)\r\n                require(balances[msg.sender][\"ETH\"] >= cost);\r\n                //msg.sender is the buyer\r\n                // reduce ETH balance & increase purchased asset balance of buyer\r\n                balances[msg.sender][ticker] += (filled);\r\n                balances[msg.sender][\"ETH\"] -= (cost);\r\n                // increase ETH balance & reduce balance of the asset that buyer purchased of the seller\r\n                balances[orders[i].trader][ticker] -= (filled);\r\n                balances[orders[i].trader][\"ETH\"] += (cost);\r\n            } else if (side == Side.SELL) {\r\n                //Msg.sender is the seller\r\n                balances[msg.sender][ticker] -= (filled);\r\n                balances[msg.sender][\"ETH\"] += (cost);\r\n\r\n                balances[orders[i].trader][ticker] += (filled);\r\n                balances[orders[i].trader][\"ETH\"] -= (cost);\r\n            }\r\n        }\r\n        /* \r\n        Once Out of the loop, we loop through the orderbook\r\n         to remove any orders that are 100% filled. \r\n         Usually the filled orders will be at the top of the orderbook (i.e. index 0,1..) because thats the \"best price'\r\n         We stop the loop once either orders.length is 0 as in orderbook is empty; OR;\r\n         when orders[0] (which is the top of the order book)'s filled amount is not equal to order amount,\r\n         meaning that the order is either only partially filled or not filled at all\r\n        e.g.[Order(amount=10, filled = 10), Order(amount=100, filled = 100),\r\n        Order(amount=25, filled = 10),Order(amount=200, filled = 0)]\r\n         */\r\n        while (orders.length > 0 && orders[0].filled == orders[0].amount) {\r\n            /*\r\n            Remove the top element in the orders array by overwriting every element\r\n            with the next element in the order list; basically what this means is that\r\n            we take the 0th index and replace it with the 1st index. Then we take the 1st index\r\n            and replace it with the 2nd index and so on. At the end, the last 2 index will be a\r\n            duplicate of each other, then we pop to last index (which is a duplicate) and remove it.\r\n\r\n            Hence, in the above example, it would be (amount=10,filled=10) being replaced with (a=100,f=100)\r\n            And then at thee end of the loop, the last 2 index would be (a=200,f=0), then the last index\r\n            which is the duplicate is removed. Hence, we successfully removed the 0th index Order(a=10,f=10) from the array. \r\n            Note: the loop stops at orders.length -1 because at the last index, there would be no i+1 if we stop\r\n            at orders.length. \r\n            */\r\n            for (uint256 i = 0; i < orders.length - 1; i++) {\r\n                orders[i] = orders[i + 1];\r\n            }\r\n            orders.pop();\r\n        }\r\n    }\r\n}\r\n",
  "sourcePath": "C:\\Users\\Denli\\Desktop\\CodeGod\\Solidity\\Moralis\\Eth Smart Contract Programming 201\\DeX Orderbook\\contracts\\Dex.sol",
  "compiler": {
    "name": "solc",
    "version": "0.8.13+commit.abaa5c0e.Emscripten.clang"
  },
  "schemaVersion": "3.4.3",
  "updatedAt": "2022-04-09T06:36:15.491Z",
  "networkType": "ethereum",
  "devdoc": {
    "kind": "dev",
    "methods": {
      "owner()": {
        "details": "Returns the address of the current owner."
      },
      "renounceOwnership()": {
        "details": "Leaves the contract without owner. It will not be possible to call `onlyOwner` functions anymore. Can only be called by the current owner. NOTE: Renouncing ownership will leave the contract without an owner, thereby removing any functionality that is only available to the owner."
      },
      "transferOwnership(address)": {
        "details": "Transfers ownership of the contract to a new account (`newOwner`). Can only be called by the current owner."
      }
    },
    "version": 1
  },
  "userdoc": {
    "kind": "user",
    "methods": {},
    "version": 1
  }
}