{
  "contractName": "Wallet",
  "abi": [
    {
      "anonymous": false,
      "inputs": [
        {
          "indexed": true,
          "internalType": "address",
          "name": "previousOwner",
          "type": "address"
        },
        {
          "indexed": true,
          "internalType": "address",
          "name": "newOwner",
          "type": "address"
        }
      ],
      "name": "OwnershipTransferred",
      "type": "event"
    },
    {
      "inputs": [
        {
          "internalType": "address",
          "name": "",
          "type": "address"
        },
        {
          "internalType": "bytes32",
          "name": "",
          "type": "bytes32"
        }
      ],
      "name": "balances",
      "outputs": [
        {
          "internalType": "uint256",
          "name": "",
          "type": "uint256"
        }
      ],
      "stateMutability": "view",
      "type": "function"
    },
    {
      "inputs": [],
      "name": "owner",
      "outputs": [
        {
          "internalType": "address",
          "name": "",
          "type": "address"
        }
      ],
      "stateMutability": "view",
      "type": "function"
    },
    {
      "inputs": [],
      "name": "renounceOwnership",
      "outputs": [],
      "stateMutability": "nonpayable",
      "type": "function"
    },
    {
      "inputs": [
        {
          "internalType": "uint256",
          "name": "",
          "type": "uint256"
        }
      ],
      "name": "tokenList",
      "outputs": [
        {
          "internalType": "bytes32",
          "name": "",
          "type": "bytes32"
        }
      ],
      "stateMutability": "view",
      "type": "function"
    },
    {
      "inputs": [
        {
          "internalType": "bytes32",
          "name": "",
          "type": "bytes32"
        }
      ],
      "name": "tokenMapping",
      "outputs": [
        {
          "internalType": "bytes32",
          "name": "ticker",
          "type": "bytes32"
        },
        {
          "internalType": "address",
          "name": "tokenAddress",
          "type": "address"
        }
      ],
      "stateMutability": "view",
      "type": "function"
    },
    {
      "inputs": [
        {
          "internalType": "address",
          "name": "newOwner",
          "type": "address"
        }
      ],
      "name": "transferOwnership",
      "outputs": [],
      "stateMutability": "nonpayable",
      "type": "function"
    },
    {
      "inputs": [
        {
          "internalType": "bytes32",
          "name": "ticker",
          "type": "bytes32"
        },
        {
          "internalType": "address",
          "name": "tokenAddress",
          "type": "address"
        }
      ],
      "name": "addToken",
      "outputs": [],
      "stateMutability": "nonpayable",
      "type": "function"
    },
    {
      "inputs": [
        {
          "internalType": "uint256",
          "name": "amount",
          "type": "uint256"
        },
        {
          "internalType": "bytes32",
          "name": "ticker",
          "type": "bytes32"
        }
      ],
      "name": "deposit",
      "outputs": [],
      "stateMutability": "nonpayable",
      "type": "function"
    },
    {
      "inputs": [
        {
          "internalType": "uint256",
          "name": "amount",
          "type": "uint256"
        },
        {
          "internalType": "bytes32",
          "name": "ticker",
          "type": "bytes32"
        }
      ],
      "name": "withdraw",
      "outputs": [],
      "stateMutability": "nonpayable",
      "type": "function"
    },
    {
      "inputs": [],
      "name": "depositEth",
      "outputs": [],
      "stateMutability": "payable",
      "type": "function"
    },
    {
      "inputs": [
        {
          "internalType": "uint256",
          "name": "amount",
          "type": "uint256"
        }
      ],
      "name": "withdrawEth",
      "outputs": [],
      "stateMutability": "nonpayable",
      "type": "function"
    }
  ],
  "bytecode": "0x608060405234801561001057600080fd5b5061002d61002261003260201b60201c565b61003a60201b60201c565b6100fe565b600033905090565b60008060009054906101000a900473ffffffffffffffffffffffffffffffffffffffff169050816000806101000a81548173ffffffffffffffffffffffffffffffffffffffff021916908373ffffffffffffffffffffffffffffffffffffffff1602179055508173ffffffffffffffffffffffffffffffffffffffff168173ffffffffffffffffffffffffffffffffffffffff167f8be0079c531659141344cd1fd0a4f28419497f9722a3daafe3b4186f6b6457e060405160405180910390a35050565b6114308061010d6000396000f3fe60806040526004361061009c5760003560e01c80639776aacf116100645780639776aacf146101685780639ead722214610191578063a8d2021a146101ce578063c311d049146101f7578063c9630cb014610220578063f2fde38b146102495761009c565b80631f14df69146100a1578063439370b1146100de578063667cb4ba146100e8578063715018a6146101265780638da5cb5b1461013d575b600080fd5b3480156100ad57600080fd5b506100c860048036038101906100c39190610d99565b610272565b6040516100d59190610df2565b60405180910390f35b6100e6610297565b005b3480156100f457600080fd5b5061010f600480360381019061010a9190610e0d565b610320565b60405161011d929190610e58565b60405180910390f35b34801561013257600080fd5b5061013b610364565b005b34801561014957600080fd5b506101526103ec565b60405161015f9190610e81565b60405180910390f35b34801561017457600080fd5b5061018f600480360381019061018a9190610e9c565b610415565b005b34801561019d57600080fd5b506101b860048036038101906101b39190610f08565b610550565b6040516101c59190610f35565b60405180910390f35b3480156101da57600080fd5b506101f560048036038101906101f09190610f50565b610574565b005b34801561020357600080fd5b5061021e60048036038101906102199190610f08565b6107ce565b005b34801561022c57600080fd5b5061024760048036038101906102429190610f50565b610974565b005b34801561025557600080fd5b50610270600480360381019061026b9190610f90565b610b3d565b005b6003602052816000526040600020602052806000526040600020600091509150505481565b34600360003373ffffffffffffffffffffffffffffffffffffffff1673ffffffffffffffffffffffffffffffffffffffff16815260200190815260200160002060007f4554480000000000000000000000000000000000000000000000000000000000815260200190815260200160002060008282546103179190610fec565b92505081905550565b60016020528060005260406000206000915090508060000154908060010160009054906101000a900473ffffffffffffffffffffffffffffffffffffffff16905082565b61036c610c34565b73ffffffffffffffffffffffffffffffffffffffff1661038a6103ec565b73ffffffffffffffffffffffffffffffffffffffff16146103e0576040517f08c379a00000000000000000000000000000000000000000000000000000000081526004016103d79061109f565b60405180910390fd5b6103ea6000610c3c565b565b60008060009054906101000a900473ffffffffffffffffffffffffffffffffffffffff16905090565b61041d610c34565b73ffffffffffffffffffffffffffffffffffffffff1661043b6103ec565b73ffffffffffffffffffffffffffffffffffffffff1614610491576040517f08c379a00000000000000000000000000000000000000000000000000000000081526004016104889061109f565b60405180910390fd5b60405180604001604052808381526020018273ffffffffffffffffffffffffffffffffffffffff16815250600160008481526020019081526020016000206000820151816000015560208201518160010160006101000a81548173ffffffffffffffffffffffffffffffffffffffff021916908373ffffffffffffffffffffffffffffffffffffffff16021790555090505060028290806001815401808255809150506001900390600052602060002001600090919091909150555050565b6002818154811061056057600080fd5b906000526020600020016000915090505481565b80600073ffffffffffffffffffffffffffffffffffffffff166001600083815260200190815260200160002060010160009054906101000a900473ffffffffffffffffffffffffffffffffffffffff1673ffffffffffffffffffffffffffffffffffffffff160361061a576040517f08c379a000000000000000000000000000000000000000000000000000000000815260040161061190611131565b60405180910390fd5b82600360003373ffffffffffffffffffffffffffffffffffffffff1673ffffffffffffffffffffffffffffffffffffffff16815260200190815260200160002060008481526020019081526020016000205410156106ad576040517f08c379a00000000000000000000000000000000000000000000000000000000081526004016106a49061119d565b60405180910390fd5b82600360003373ffffffffffffffffffffffffffffffffffffffff1673ffffffffffffffffffffffffffffffffffffffff1681526020019081526020016000206000848152602001908152602001600020600082825461070d91906111bd565b925050819055506001600083815260200190815260200160002060010160009054906101000a900473ffffffffffffffffffffffffffffffffffffffff1673ffffffffffffffffffffffffffffffffffffffff1663a9059cbb33856040518363ffffffff1660e01b81526004016107859291906111f1565b6020604051808303816000875af11580156107a4573d6000803e3d6000fd5b505050506040513d601f19601f820116820180604052508101906107c89190611252565b50505050565b80600360003373ffffffffffffffffffffffffffffffffffffffff1673ffffffffffffffffffffffffffffffffffffffff16815260200190815260200160002060007f45544800000000000000000000000000000000000000000000000000000000008152602001908152602001600020541015610881576040517f08c379a0000000000000000000000000000000000000000000000000000000008152600401610878906112cb565b60405180910390fd5b80600360003373ffffffffffffffffffffffffffffffffffffffff1673ffffffffffffffffffffffffffffffffffffffff16815260200190815260200160002060007f45544800000000000000000000000000000000000000000000000000000000008152602001908152602001600020600082825461090191906111bd565b925050819055503373ffffffffffffffffffffffffffffffffffffffff168160405161092c9061131c565b60006040518083038185875af1925050503d8060008114610969576040519150601f19603f3d011682016040523d82523d6000602084013e61096e565b606091505b50505050565b80600073ffffffffffffffffffffffffffffffffffffffff166001600083815260200190815260200160002060010160009054906101000a900473ffffffffffffffffffffffffffffffffffffffff1673ffffffffffffffffffffffffffffffffffffffff1603610a1a576040517f08c379a0000000000000000000000000000000000000000000000000000000008152600401610a1190611131565b60405180910390fd5b6001600083815260200190815260200160002060010160009054906101000a900473ffffffffffffffffffffffffffffffffffffffff1673ffffffffffffffffffffffffffffffffffffffff166323b872dd3330866040518463ffffffff1660e01b8152600401610a8d93929190611331565b6020604051808303816000875af1158015610aac573d6000803e3d6000fd5b505050506040513d601f19601f82011682018060405250810190610ad09190611252565b5082600360003373ffffffffffffffffffffffffffffffffffffffff1673ffffffffffffffffffffffffffffffffffffffff16815260200190815260200160002060008481526020019081526020016000206000828254610b319190610fec565b92505081905550505050565b610b45610c34565b73ffffffffffffffffffffffffffffffffffffffff16610b636103ec565b73ffffffffffffffffffffffffffffffffffffffff1614610bb9576040517f08c379a0000000000000000000000000000000000000000000000000000000008152600401610bb09061109f565b60405180910390fd5b600073ffffffffffffffffffffffffffffffffffffffff168173ffffffffffffffffffffffffffffffffffffffff1603610c28576040517f08c379a0000000000000000000000000000000000000000000000000000000008152600401610c1f906113da565b60405180910390fd5b610c3181610c3c565b50565b600033905090565b60008060009054906101000a900473ffffffffffffffffffffffffffffffffffffffff169050816000806101000a81548173ffffffffffffffffffffffffffffffffffffffff021916908373ffffffffffffffffffffffffffffffffffffffff1602179055508173ffffffffffffffffffffffffffffffffffffffff168173ffffffffffffffffffffffffffffffffffffffff167f8be0079c531659141344cd1fd0a4f28419497f9722a3daafe3b4186f6b6457e060405160405180910390a35050565b600080fd5b600073ffffffffffffffffffffffffffffffffffffffff82169050919050565b6000610d3082610d05565b9050919050565b610d4081610d25565b8114610d4b57600080fd5b50565b600081359050610d5d81610d37565b92915050565b6000819050919050565b610d7681610d63565b8114610d8157600080fd5b50565b600081359050610d9381610d6d565b92915050565b60008060408385031215610db057610daf610d00565b5b6000610dbe85828601610d4e565b9250506020610dcf85828601610d84565b9150509250929050565b6000819050919050565b610dec81610dd9565b82525050565b6000602082019050610e076000830184610de3565b92915050565b600060208284031215610e2357610e22610d00565b5b6000610e3184828501610d84565b91505092915050565b610e4381610d63565b82525050565b610e5281610d25565b82525050565b6000604082019050610e6d6000830185610e3a565b610e7a6020830184610e49565b9392505050565b6000602082019050610e966000830184610e49565b92915050565b60008060408385031215610eb357610eb2610d00565b5b6000610ec185828601610d84565b9250506020610ed285828601610d4e565b9150509250929050565b610ee581610dd9565b8114610ef057600080fd5b50565b600081359050610f0281610edc565b92915050565b600060208284031215610f1e57610f1d610d00565b5b6000610f2c84828501610ef3565b91505092915050565b6000602082019050610f4a6000830184610e3a565b92915050565b60008060408385031215610f6757610f66610d00565b5b6000610f7585828601610ef3565b9250506020610f8685828601610d84565b9150509250929050565b600060208284031215610fa657610fa5610d00565b5b6000610fb484828501610d4e565b91505092915050565b7f4e487b7100000000000000000000000000000000000000000000000000000000600052601160045260246000fd5b6000610ff782610dd9565b915061100283610dd9565b9250827fffffffffffffffffffffffffffffffffffffffffffffffffffffffffffffffff0382111561103757611036610fbd565b5b828201905092915050565b600082825260208201905092915050565b7f4f776e61626c653a2063616c6c6572206973206e6f7420746865206f776e6572600082015250565b6000611089602083611042565b915061109482611053565b602082019050919050565b600060208201905081810360008301526110b88161107c565b9050919050565b7f546f6b656e20646f65736e2774206578697374207965742e20506c656173652060008201527f6164642074686520746f6b656e20666972737400000000000000000000000000602082015250565b600061111b603383611042565b9150611126826110bf565b604082019050919050565b6000602082019050818103600083015261114a8161110e565b9050919050565b7f496e73756666696369656e742062616c616e6365000000000000000000000000600082015250565b6000611187601483611042565b915061119282611151565b602082019050919050565b600060208201905081810360008301526111b68161117a565b9050919050565b60006111c882610dd9565b91506111d383610dd9565b9250828210156111e6576111e5610fbd565b5b828203905092915050565b60006040820190506112066000830185610e49565b6112136020830184610de3565b9392505050565b60008115159050919050565b61122f8161121a565b811461123a57600080fd5b50565b60008151905061124c81611226565b92915050565b60006020828403121561126857611267610d00565b5b60006112768482850161123d565b91505092915050565b7f496e7375666669656e742062616c616e63650000000000000000000000000000600082015250565b60006112b5601283611042565b91506112c08261127f565b602082019050919050565b600060208201905081810360008301526112e4816112a8565b9050919050565b600081905092915050565b50565b60006113066000836112eb565b9150611311826112f6565b600082019050919050565b6000611327826112f9565b9150819050919050565b60006060820190506113466000830186610e49565b6113536020830185610e49565b6113606040830184610de3565b949350505050565b7f4f776e61626c653a206e6577206f776e657220697320746865207a65726f206160008201527f6464726573730000000000000000000000000000000000000000000000000000602082015250565b60006113c4602683611042565b91506113cf82611368565b604082019050919050565b600060208201905081810360008301526113f3816113b7565b905091905056fea2646970667358221220cab7086e8ee20ca138771e70a63c1f33838b097e24b85e750dd6fde841f9e3a864736f6c634300080d0033",
  "immutableReferences": {},
  "source": "pragma solidity ^0.8.0;\r\n\r\n// remember: to interact with another contract (e.g. ERC20 contracts), we need an interface and the address\r\n// hence, we just import the IERC20 which is interface for ERC20 tokens from openzeppelin\r\nimport \"../node_modules/@openzeppelin/contracts/token/ERC20/IERC20.sol\"; // need npm install it also\r\nimport \"../node_modules/@openzeppelin/contracts/access/Ownable.sol\";\r\n\r\ncontract Wallet is Ownable {\r\n    struct Token {\r\n        bytes32 ticker; // e.g. BNB\r\n        address tokenAddress; // we need the address of the token in order to make transfer calls\r\n    }\r\n    mapping(bytes32 => Token) public tokenMapping;\r\n    bytes32[] public tokenList;\r\n\r\n    /*\r\n        we need a mapping which supports multiple balances because we can have multiple tokens e.g. ETH,LINK,AAVE, etc... \r\n        bytes32 is similar to string but we can do more stuff??\r\n        user's wallet address => token symbol => amount/balance e.g. 0x...... => BNB => 10000\r\n    */\r\n    mapping(address => mapping(bytes32 => uint256)) public balances;\r\n\r\n    function addToken(bytes32 ticker, address tokenAddress) external onlyOwner {\r\n        tokenMapping[ticker] = Token(ticker, tokenAddress);\r\n        tokenList.push(ticker);\r\n    }\r\n\r\n    function deposit(uint256 amount, bytes32 ticker)\r\n        external\r\n        tokenExists(ticker)\r\n    {\r\n        /*transfers from the msg.sender to our wallet (this smart contract address)\r\n        Note: this IERC20 does the check that the user has approve us to spend on his behalf\r\n        and it also checks that we are spending within the allowance */\r\n        IERC20(tokenMapping[ticker].tokenAddress).transferFrom(\r\n            msg.sender,\r\n            address(this),\r\n            amount\r\n        );\r\n        balances[msg.sender][ticker] += amount;\r\n    }\r\n\r\n    function withdraw(uint256 amount, bytes32 ticker)\r\n        external\r\n        tokenExists(ticker)\r\n    {\r\n        require(balances[msg.sender][ticker] >= amount, \"Insufficient balance\");\r\n\r\n        balances[msg.sender][ticker] -= amount; //Note: in solidity 0.8.0 above, safemath is built in the compiler and is no longer needed\r\n        // here, we are putting in the token address in the IERC20 interface\r\n        IERC20(tokenMapping[ticker].tokenAddress).transfer(msg.sender, amount);\r\n    }\r\n\r\n    function depositEth() external payable {\r\n        balances[msg.sender][bytes32(\"ETH\")] += msg.value;\r\n    }\r\n\r\n    function withdrawEth(uint256 amount) external {\r\n        require(\r\n            balances[msg.sender][bytes32(\"ETH\")] >= amount,\r\n            \"Insuffient balance\"\r\n        );\r\n        balances[msg.sender][bytes32(\"ETH\")] -= amount;\r\n        msg.sender.call{value: amount}(\"\"); //sends to msg.sender the amount\r\n    }\r\n\r\n    modifier tokenExists(bytes32 ticker) {\r\n        // if the ticker doesn't address, it is uninitialised. When we call it, it will automatically go to the address(0);\r\n        // hence, this require checks that the ticker has already been added to the tokenList\r\n        require(\r\n            tokenMapping[ticker].tokenAddress != address(0),\r\n            \"Token doesn't exist yet. Please add the token first\"\r\n        );\r\n        _;\r\n    }\r\n}\r\n",
  "sourcePath": "C:\\Users\\Denli\\Desktop\\CodeGod\\Solidity\\Moralis\\Eth Smart Contract Programming 201\\DeX Orderbook\\contracts\\wallet.sol",
  "compiler": {
    "name": "solc",
    "version": "0.8.13+commit.abaa5c0e.Emscripten.clang"
  },
  "schemaVersion": "3.4.3",
  "updatedAt": "2022-04-09T06:33:34.386Z",
  "devdoc": {
    "kind": "dev",
    "methods": {
      "owner()": {
        "details": "Returns the address of the current owner."
      },
      "renounceOwnership()": {
        "details": "Leaves the contract without owner. It will not be possible to call `onlyOwner` functions anymore. Can only be called by the current owner. NOTE: Renouncing ownership will leave the contract without an owner, thereby removing any functionality that is only available to the owner."
      },
      "transferOwnership(address)": {
        "details": "Transfers ownership of the contract to a new account (`newOwner`). Can only be called by the current owner."
      }
    },
    "version": 1
  },
  "userdoc": {
    "kind": "user",
    "methods": {},
    "version": 1
  }
}